:020000040800F2
:10000000280400209D010008590300089D020008F3
:1000100055030008E5010008DD05000800000000A8
:10002000000000000000000000000000650400085F
:10003000E9010008000000005B0300085505000806
:10004000B7010008B7010008B7010008B7010008B0
:10005000B7010008B7010008B7010008B7010008A0
:10006000B7010008B7010008B7010008B701000890
:10007000B7010008B7010008B7010008B701000880
:10008000B7010008B7010008B7010008B701000870
:10009000B7010008B7010008B7010008B701000860
:1000A000B7010008B7010008B7010008B701000850
:1000B000B7010008B7010008B7010008B701000840
:1000C000B7010008B7010008B7010008B701000830
:1000D000B7010008B7010008B7010008B701000820
:1000E000B7010008B7010008B7010008B701000810
:1000F000B7010008B7010008B7010008B701000800
:10010000B7010008B7010008B7010008B7010008EF
:10011000B7010008B7010008B7010008B7010008DF
:10012000B7010008B7010008B7010008B7010008CF
:10013000B7010008B7010008B7010008B7010008BF
:10014000B7010008B7010008B7010008B7010008AF
:10015000B7010008B7010008B7010008B70100089F
:10016000B7010008B7010008B7010008B70100088F
:10017000B7010008B7010008B7010008B70100087F
:10018000B7010008B7010008DFF80CD000F018F83C
:100190000048004701060008280400200648804760
:1001A00006480047FEE7FEE7FEE7FEE7FEE7FEE75C
:1001B000FEE7FEE7FEE7FEE75D05000889010008AF
:1001C000064C074D06E0E06840F0010394E80700A4
:1001D00098471034AC42F6D3FFF7DAFF1007000857
:1001E0003007000800BFFEE77047000001B5044972
:1001F0000098086000BF024800680028FBD108BDD5
:1002000010000020F0B50A4600210023002400BFA2
:100210003DE0012505FA01F3156805EA03049C4257
:1002200034D105684F000326BE40B54305601579FB
:100230004E00B5400668354305601579012D02D0A2
:100240001579022D16D185684F000326BE40B543AF
:10025000856055794E00B5408668354385604568B0
:1002600001268E40B5434560456896798E40B6B20A
:1002700035434560C5684F000326BE40B543C560A1
:10028000D5794E00B540C6683543C560491C102974
:10029000BFD3F0BD418370470183704700BFFEE7C5
:1002A0001CB50121022000F059F8402000900120E7
:1002B0008DF8040000208DF8060003208DF805005D
:1002C00000208DF8070069461F48FFF79BFF0121BA
:1002D000084600F043F85020009001208DF80400FB
:1002E00000208DF8060003208DF8050000208DF811
:1002F000070069461548FFF785FF0121042000F03B
:100300002DF84020009001208DF8040000208DF889
:10031000060003208DF8050000208DF807006946CF
:100320000B48FFF76FFF40210748FFF7B5FF10218B
:100330000648FFF7B1FF40210448FFF7ADFF402119
:100340000348FFF7A9FF1CBD000402400000024063
:100350000008024000BFFEE77047704729B1064A17
:1003600012680243044B1A6004E0034A1268824395
:10037000014B1A607047000030380240F0B5002190
:1003800000220024022500260223324F3F6807F096
:100390000C0121B1042905D0082937D105E02E4FE1
:1003A000076036E02D4F076033E02A4F3F1F3F685C
:1003B000C7F38056274F3F1F3F6807F03F036EB1DA
:1003C000264FB7FBF3F7DFF88CC0ACF1040CDCF878
:1003D00000C0CCF3881C07FB0CF40CE01E4FB7FBED
:1003E000F3F7DFF870C0ACF1040CDCF800C0CCF31C
:1003F000881C07FB0CF4174F3F1F3F68C7F30147EA
:100400007F1C7D00B4FBF5F7076002E0124F076028
:1004100000BF00BF0F4F3F6807F0F0010909104F00
:100420007A5C0768D74047600A4F3F6807F4E0519D
:10043000890A0B4F7A5C4768D7408760054F3F6851
:1004400007F46041490B064F7A5C4768D740C760A4
:10045000F0BD0000083802400024F40040787D011F
:1004600000000020704700000CB5002001900090B3
:100470003448006840F480303249086000BF314899
:10048000006800F4003000900198401C0190009832
:1004900018B90198B0F5A04FF1D12A48006800F4CE
:1004A000003010B10120009001E000200090009881
:1004B000012846D123484030006840F0805021494F
:1004C000403108602048006840F440401E49086000
:1004D0001C48083000681B4908310860084600685D
:1004E00040F4004008600846006840F4A0500860EE
:1004F0001648091F0860081F006840F08070091F37
:10050000086000BF0F48006800F000700028F9D0B4
:1005100040F205700E4908600A480830006820F073
:1005200003000849083108600846006840F00200EE
:10053000086000BF03480830006800F00C0008287D
:10054000F8D10CBD0038024000700040195440073B
:10055000003C024010B500F035F810BD10B515484C
:10056000006840F47000134908601348006840F0C8
:1005700001001149086000200F49083108600E4849
:1005800000680E4908400C4908600D48091D0860C4
:10059000081F006820F48020091F08600020064919
:1005A0000C310860FFF760FF4FF0006001498039AF
:1005B000086010BD88ED00E000380240FFFFF6FE45
:1005C000103000240448006820B103480068401E31
:1005D00001490860704700001000002000BFFEE7DE
:1005E00002E008C8121F08C1002AFAD170477047FC
:1005F000002001E001C1121F002AFBD1704700005A
:100600003D48FFF7BBFE3C4840686422B0FBF2F176
:10061000481EB0F1807F00D31BE0481E4FF0E0225F
:10062000506150170F22002807DA13071D0E334BB5
:1006300000F00F04241F1D5503E013071C0E304B60
:100640001C5400BF00204FF0E02290610720106191
:1006500000BFFFF725FE0520FFF7C8FD4BE0402156
:100660002848FFF719FE10212748FFF715FE402103
:100670002548FFF711FE40212448FFF70BFE0A2012
:10068000FFF7B4FD40211F48FFF706FE10211E486A
:10069000FFF702FE40211C48FFF7FCFD40211B48EC
:1006A000FFF7FAFD0A20FFF7A1FD40211548FFF7EB
:1006B000F3FD10211448FFF7EDFD40211248FFF72C
:1006C000EBFD40211148FFF7E7FD0A20FFF78EFD03
:1006D00040210C48FFF7DEFD10210B48FFF7DCFD41
:1006E00040210948FFF7D8FD40210848FFF7D4FD15
:1006F0000A20FFF77BFDB2E71400002018ED00E0B0
:1007000000E400E000040240000002400008024053
:10071000300700080000002014000000E005000879
:10072000440700081400002014040000F00500082D
:100730000000000001020304010203040607080987
:0407400000000000B5
:040000050800018965
:00000001FF
